:100000000200E1FFFFFFFFFFFFFFFFFFFFFFFFFF1A
:10001000FFFFFFFFFFFFFFFFFFFFFFFFFFFFFFFFF0
:10002000FFFFFF022686FFFFFFFFFF025F6EFFFF5D
:10003000FFFFFF026050FFFFFFFFFFFFFFFFFFFF1B
:10004000FFFFFFFFFFFFFFFFFFFFFF022B31FFFF5F
:10005000FFFFFFFFFFFFFFFFFFFFFF025F82FFFFCA
:10006000FFFFFFFFFFFFFFFFFFFFFFFFFFFFFFFFA0
:10007000FFFFFFFFFFFFFFFFFFFFFFFFFFFFFFFF90
:10008000FFFFFF02152E00000080FB1200F0B900F8
:10009000030200DBE47926784DB800028004F709FA
:1000A000D8FCE490033A789D79048002F0A3D8FC50
:1000B000D9FA9006D6AA82AB839000F3780F790123
:1000C0008015E493A3AC82AD838A828B83F0A3AACC
:1000D00082AB838C828D83D8E9D9E7123814120061
:1000E0008675D0007581BF75103A75110302008BBB
:1000F00079012202020101A701F802300330033C1A
:10010000031201000200000020EF17EE602701013A
:1001100002000109025400030100A032090400009A
:100120000103010100092111010001223B00070523
:1001300081030800040904010001030102000921F0
:100140001101000122FC00070582030800040904D4
:1001500002000103000000092111010001221A0020
:1001600007058303200001040309040E034C006506
:10017000006E006F0076006F002E03540072006165
:100180000063006B0050006F0069006E0074002077
:10019000004B006500790062006F0061007200642E
:1001A0000020004900490005010906A101950875D4
:1001B0000115002501050719E029E7810281039552
:1001C000050508190129059102950175039101950D
:1001D000067508150026FF00050719002AFF008193
:1001E00000C005010902A10185010901A10005095D
:1001F0001901290315002501950375018102950157
:100200007505810105010930093109381581257FFE
:100210007508950381069501050C0A38028106C010
:10022000C0060AFF0905A101850519002AFF00156E
:100230000026FF00750895018100C0050C0901A189
:1002400001851095017510150126FF0219012AFF7D
:10025000028100C005010980A10185121500250158
:10026000750195030981098209838102950175054C
:100270008103C006A0FF0901A10185151AF1002A1A
:10028000FC00150025017501950D81029503810182
:10029000C00610FF0901A101851619002AFF0015EB
:1002A0000026FF00750895028102C0050C0901A116
:1002B00001851305010906A102050609201500267E
:1002C000FF0075089501810206BCFF0AADBD7508E7
:1002D00095068102090175089507B102C0C00600A4
:1002E000FF0905A101850419002AFF00150026FF5A
:1002F000007508951FB102C022000000A7013B0055
:1003000022000001E201FC0022000002DE021A00CD
:10031000210000002501090021000000250109003D
:10032000210000013E0109002100000257010900DF
:100330001C010000350100004E010000A2E792D62A
:100340005002F40430F70663F0FF05F0B340038475
:10035000800384F40430D60563F0FF05F022BB016E
:1003600002E722C082C08389828A83BB0003E080C7
:1003700002E493D083D08222BB000EC082C0838A65
:10038000838982F0D083D08222BB0101F722E0264C
:10039000F008A3E036F008A3E036F008A3E036F05A
:1003A00022E493F608740193F608740293F6087435
:1003B0000393F622E6F008A3E6F008A3E6F008A30C
:1003C000E6F022E0FAA3E0FBA3E0FCA3E0FD22EAD2
:1003D000F0A3EBF0A3ECF0A3EDF022CAC0E0E6F04E
:1003E000A308DAFAD0E0FA22CAC0E0E0A3C582CCC2
:1003F000C582C583CDC583F0A3C582CCC582C58324
:10040000CDC583DAE6D0E0CA22CAC0E0E493A3C532
:1004100082CCC582C583CDC583F0A3C582CCC582FD
:10042000C583CDC583DAE5D0E0CA22600C08C6C317
:1004300013C618C613C6D5E0F422700422600D1846
:10044000C6C333C608C633C6D5E0F418222510103B
:10045000AF08F510400215118008F5104002151183
:10046000D2AF22C0D0251010AF08F51050020511F0
:100470008008F51050020511D2AFD0D0222510F51A
:100480008210AF08F510400215118008F5104002E7
:100490001511D2AF851183222510F582E43511F5AF
:1004A0008322E473C0E0E8C0E0E58124FCF8E6A222
:1004B000E7D0E0F8D0E0222510C582C0E0E5113495
:1004C000FFC583C0E0E510C3958224F910AF08850D
:1004D00083118582108008858311858210D2AFCE6A
:1004E000F0A3E520F0A37808E608F0A3DEFAEFF029
:1004F000A3E58124FBF8E608F0A3E608F0A30808CA
:10050000E608F0A3E608F0A315811581D0E0FED03F
:10051000E0F815811581E8C0E0EEC0E02285118386
:10052000851082E0A3FEE0A3F5207808E0A3F6089A
:10053000DFFAE0A3FFE0A3C0E0E0A3C0E0E0A3C0D7
:10054000E0E0A3C0E010AF08858210858311800829
:10055000858210858311D2AFD083D08222C0D0256E
:1005600010C582C0E0E51134FFC583C0E0E510C3CB
:10057000958224F310AF0885831185821080088549
:100580008311858210D2AFC8F0A3E9F0A3EAF0A3EB
:10059000EBF0A37908E709F0A3D8FAECF0A3EDF0AB
:1005A000A3EEF0A3EFF0A3D0E0F0A3D0E0F0A3D04F
:1005B000E0F0A3E520F0A3E5F0F0A3228511838508
:1005C0001082E0C0E0A3E0F9A3E0FAA3E0FBA37887
:1005D00008E0F608A3DFFAE0FCA3E0FDA3E0FEA339
:1005E000E0FFA3E0C0E0A3E0C0E0A3E0F5D0A3E01B
:1005F000F520A3E0A3F5F010AF08858311858210E4
:100600008008858311858210D2AFD082D083D0E05C
:10061000F8D0E0327403800474028000C0E0F40477
:1006200012047DD0E01203DB227403800474028084
:1006300000CCC0E0EDC0E0E510C39CCCAD11500192
:100640001D10AF068C108D1180068C108D11D2AF4D
:100650001203E8D0E0FDD0E0FC22D083D082E9C0D4
:10066000E0E493A3C386F0C5F095F0F908E493A302
:1006700086F0C5F095F0700BE493A3C3994005E9AB
:10068000048002A3E475F002A42582F582E5F0352A
:1006900083F583D0E0F9E493A3C0E0E493C0E022C3
:1006A000D083D082CCC0E0E493A360061206CA14C3
:1006B00070FAE493A360061206E91470FAD0E0FC25
:1006C000E493A3C0E0E493C0E022C0E0E493A3D3AA
:1006D0009C5010E493A3C39C400AD0E0D0E0D0E04B
:1006E0000206BDA3A3A3D0E022C0E0E493A36C70F4
:1006F00009D0E0D0E0D0E00206BDA3A3D0E022CC38
:10070000CCCC4C0908040501172D2D1A440C4023AC
:10071000490D171A2D0B4D325366FFFFFFFF0000E6
:100720000000E60019018001B301000280021A03F3
:10073000B3031A042800000020000000000F00008E
:100740008002000074F71204B780037480F07B000D
:1007500090056CE064F0F0F5C964F0F0F5C99062C2
:1007600011E0A2E440E5EB601214700302092F14BB
:1007700070030207FB24FE60D580D5E0A2E050D0D4
:100780007B04906216E0640870C67A00906220E0F4
:10079000C0E08A08743A2508F58274033400F583B2
:1007A000D0E0F00AEAC3940840E290033AE0642102
:1007B0007026A3E06409703CA3E064047004A3E025
:1007C000640370301B1B900342E4F09005E1F0904D
:1007D00062117440F0020750E064807017A3E06477
:1007E000067011A3E064E27004A3E0640370051BCB
:1007F0001B1B80DB906211746080D9E0A2E0400393
:10080000020750906216E0FA7B008023906220E09D
:10081000C0E08B08900342E0F8E50828F8E43400D3
:10082000F974E128F582740539F583D0E0F00BEB1B
:10083000C39A40D8900342E02AF08A08900340C34C
:10084000E09508F0A3E09400F0900340E0F8A3E006
:10085000F9E84990621160030209277448F0906238
:1008600070E0A2E740F89005E2E024FD600C14601F
:10087000251470030209250207509005E4E09062F8
:1008800072F0906271E4F0906270E0D2E0F0E0A269
:10089000E740FB02074EA3E090033EF09005E4E042
:1008A00090033FF07A0290033EE0F8A3E0C313F90F
:1008B000E81390033EF0A3E9F01AEA70E97A0480A5
:1008C0001E90627374FFF018E8703A906270E0A2B4
:1008D000E740F890033EE02401F0A3E03400F090FC
:1008E0000342E0F8EAC398400302074E90033FE05A
:1008F000906272F090033EE0906271F0906270E05E
:10090000D2E1F07804900342E0F9EAC39950B28A48
:100910000874E12508F58274053400F583E09062DF
:1009200073F00A80A280FE7440F07B0202075079C7
:10093000007A007B007C007D007E7890800080182B
:10094000E029F9EA3400FAEB3400FBEC3400FCA3B4
:10095000ED24FFFDEE34FFFEED4E70E49062207456
:1009600006F07403F0E9F0EAF0EBF0ECF0906211BD
:10097000740AF002074EC082C08353CBEFC2AF901F
:10098000620EE4F07A447B07126B9FD083D0822200
:10099000C082C083900344E4F0C208900343740211
:1009A000F0C209020A5874F51204B7C208C20990CD
:1009B00006FF78081203A190049178081203B4E5A9
:1009C000E170FC75E101906190E0C2E5F07A327B64
:1009D000001229D67F0402051DC082C08390034403
:1009E0007401F01209A6120CCF900343E024159075
:1009F0006184F0E5E170FC75E108805CC082C08331
:100A00009003447403120A5D7403F09061E8746506
:100A1000F0120A68E5E170FCE5E170FC75E1047A2A
:100A2000D07B071229ABE5E170FC75E1018029C09C
:100A300082C0839003447402120A5DE4F09061E87E
:100A4000F0120A68906190E0D2E5F090619B7475B5
:100A5000F0E5E170FC75E104D083D08222F0120948
:100A6000A6120AA89061E922C082C083900344E0E4
:100A70006402700E9061A6740AF0900343E024159E
:100A80008020900343E0C3942A9061A6500B740524
:100A9000F0900343E024168009740FF0900343E0C4
:100AA0002414906184F080B0C082C0839061B1E46E
:100AB000F0906188E0A2E240F89061C07408F09084
:100AC0006001E054FC4402F0E0C2E2F0E0C2E3F076
:100AD000E054CFF0E0C2E6F0E0C2E7F090601074BE
:100AE000A0F0A3740FF0A3E4F0A3740FF0A3E4F05C
:100AF000A3F0906018E0C2E2F0E0D2E4F0E0C2E6D9
:100B0000F0E0D2E0F0E0C2E1F0E0C2E3F0E0C2E504
:100B1000F090618A7401F0A3F0A3F09061B1F090BD
:100B20006188E0A2E250F8E5E170FC75E101121481
:100B3000EB020A5874F51204B79061B1E4F09061C9
:100B400088E0A2E240F8120ECC120618120BA21294
:100B500004639061C07408F07808120618120BA2A2
:100B6000120463120C90120F0D120BEA1203A190E3
:100B700061F878081203B49004911203C390619550
:100B80001203CF120BC4C2E2120C29906188E0A2BA
:100B9000E250F8E5E170FC120BB0F090618DE402D8
:100BA0000E207C007D007A007B60126CB7740222FC
:100BB000120E26F0F5287529FF906000E0D2E7F0CC
:100BC000E0447F229061E9E4F09061947480F090B9
:100BD00061877479F090619A7429F09061A574012D
:100BE000F0906003E0D2E1F0E02290618674E512BB
:100BF0000E4D90619014F090619274CCF0906191E0
:100C00007448F09061937463F09061B67416F0903C
:100C100061BC7407F090619B745AF09061A2746695
:100C2000120E5B900703780822120E4354CF441033
:100C3000F0E0D2E6F0906012E4F0A3F0A37408F0C4
:100C4000A314F09061A0747FF090619A743FF0A3B8
:100C5000745AF0906002E054CF4420F0E0543F44D6
:100C600080F0906000E054804464F0906181E41270
:100C70000C7322F0A3741DF0A3E4F0439A0175E90C
:100C80000075910075BF00759B009061B104F02262
:100C9000906000747FF090607F740FF0906001E0CE
:100CA00054FC4402F0E0C2E2120E6CC2E0120E3AB2
:100CB0004420120E88120EAD120F2690603274027C
:100CC000F0906030120F26906033E0C2E0F02274A2
:100CD000F51204B79061B1E4F0906188E0A2E240BF
:100CE000F8120ECC120618120BA21204639061C007
:100CF0007408F07808120618120BA21204639060B0
:100D000000747FF0A3E054FC4402F0E0D2E2120E43
:100D10006CD2E0120E3A120E88F090601474BEF09D
:100D2000A3740AF0906012E4F0A3120E4354FCF096
:100D3000E054F3F0E054CF4410F0E0C2E6F0A374C6
:100D40000F120EAD120F099060327402F0906030F5
:100D5000120F09120F0D9060567405F09060541236
:100D60000F099060627406F0906060120F09906144
:100D70008A7401F0A3F0A3120E4DA374F5F0A374CE
:100D800069F0906190744EF0A37448F0A374C0F0C1
:100D9000A37463F09061A5740FF0A3740AF09061DE
:100DA000BC7407F09061A9E4F09061A27466F090C1
:100DB00061947480F090070378081203A19061F8A1
:100DC00078081203B49004911203C3906195120342
:100DD000CF90619A743FF0A3745AF09061A0747F31
:100DE000120E5B9061E9E4F0A3F09061B67416F026
:100DF00090600CE4F0906079F09061C3F0A3F09003
:100E000061C6F09061C9F09061D1F0906181120CDF
:100E100073906188E0A2E250F8E5E170FC120E26C2
:100E2000F07F0402051D75E1011214EB12152490E8
:100E30000345E4F0900370F0A322F0E0D2E3F0E089
:100E400054CF22F090607EE0D2E7F0E022F0906193
:100E5000807443F0906185740FF022F09061E0E4BB
:100E6000F0A3F0A37421F0A37410F022F0E0C2E329
:100E7000F0E054CFF0E0C2E6F0E0C2E7F0A3E0D249
:100E8000E1F0E0D2E2F0E022F0E0543F4480F0A351
:100E9000E0D2E0F0E0D2E1F0E0C2E2F0A37402F0D0
:100EA000906008E4F0A3F0A374FFF0A322F0906038
:100EB0001AE4F0906018120F33C2E0F0E0D2E112B1
:100EC0000F419060267401F090602422120EF0A36E
:100ED00074CAF0A3E4F0A37480F0A3E4F0120EE16E
:100EE000229061C0740CF0750880750900780822A2
:100EF0009061C0740DF09060087420F0A3743CF011
:100F0000A37414F0A3744AF022120F262290603EBC
:100F10007403F090603C120F2690604A7404F090C5
:100F20006048120F2622120F33D2E0F0E0C2E11225
:100F30000F4122E0C2E2F0E0D2E4F0E0C2E6F0E0ED
:100F400022F0E0D2E3F0E0C2E5F0A37420F022C08A
:100F500082C083900345E064027009E4F0E5E1702B
:100F6000FC75E1018030C082C083900345E06402DB
:100F70007009E4F0E5E170FC75E10B8019C082C0F6
:100F800083900370EAF0A3EB800BC082C0839003D0
:100F900045E0F98001F0D083D08222C082C08390E6
:100FA0000370E0FAA3E0FB80EDC082C083900345AC
:100FB000E064027007E5E170FC75E101740280D520
:100FC000C082C083900345E06402705E900370E0CD
:100FD000F8A3E0F9E8496052900370E0F47003A3CD
:100FE000E0F4600C900370E024FFF0A3E034FFF025
:100FF00090036AE004F0C394054002E4F0E5287031
:101000002CE5E170FC75E10BE0F8746B28F5827457
:10101000031214B82415547FF8906000E0548048FF
:10102000F0E5E170FC75E1088003120F4F020F96A6
:10103000C082C083859127E527A2E0501290034427
:10104000E06401700512127C800312107B920AE5A5
:1010500027A2E3501590618DE0A2E75008120F4FD0
:10106000E4F0120FA912107B800EA2E2500AE5E113
:1010700070FC75E1811214EB020F9674F51204B73F
:10108000E5D9900346F0E5D9A3F0900346E014F0CB
:10109000C39421400302126BA3E0A2E540030212B5
:1010A000329060127480F0A3740CF0906016740497
:1010B000F0A3E4F0906000E0447FF0752801E5E1E2
:1010C00070FC75E191E5E170FC900347E054076026
:1010D000151470030211A61470030211D6147003C4
:1010E0000212070212209061951203C3900372123C
:1010F00003CF90070378081203A190619578081236
:1011000003B4E5E170FC75E130754B01E529700829
:10111000E54A04F54B7529FF752600000526E526EE
:10112000C3940A40F6E54B7003021232900347E085
:1011300054E0F54C854BD9854CD9752600E54B24F8
:10114000FFF8E434FFF9C3E89401E99400A2D26502
:10115000D0334021782AE6F5D9052608852608E50A
:101160004B24FFFAE434FFFBC3E5089AE49BA2D2C8
:1011700065D03340E1759100E5E170FC75E109E56A
:1011800091A2E650FAE5E170FC75E108752800E0EF
:10119000540760030212269003721203C3906195F4
:1011A0001203CF02122B90601A7401F0E5E170FC7B
:1011B00075E131754B017401652970087529FFE5EA
:1011C0004A04F54B752600000526E526C3940A401F
:1011D0000302112580F1E5E170FC75E13290601A9F
:1011E0007402F0754B01752600000526E526C394B0
:1011F0000940F67402652960030211257529FFE58F
:101200004A04F54B021125E5E170FC75E13390606D
:101210001A7403F0754B016529600302112C80DC00
:10122000754B0102112C90601AE4F0906012E4F00A
:10123000A3F07800900346E06020E5D9C0E088087C
:1012400074482508F58274033400F583D0E0F00873
:10125000900346E0F9E8C39940E0E5D9900368F0CF
:10126000E5D9A3F05407C394044006121524C380A3
:1012700008E5E170FC75E181D3020E2174F71204D8
:10128000B7E5D9FEEE900346F0EEC39421503D7EC3
:1012900000900346E0F8EEC398501BE5D9C0E08EFD
:1012A0000875090074482508F58274033509F5832B
:1012B000D0E0F00E80DBE5D9900368F0E5D990032B
:1012C00069F0E5E170FC75E182D38004121524C356
:1012D0007F0202051DA20A2274F81204B7E9FEA2D9
:1012E0000A5025900369E054076E7003D3801AE01A
:1012F0005407C3940440119061C5E0A2E350071263
:10130000107B920A8002C20AC37F0102051D74F796
:101310001204B77409120498E0F8A3E0F9740B12F0
:101320000498E0FEA3E0FFA20A507F900346E0C3CA
:101330009421504F752600801F8526087448250883
:10134000F58274031214B8C0E0EA2508F582EB3484
:1013500000F583D0E0F00526900346E0F508E52689
:10136000C3950840D4900369E0540788828983F0CC
:10137000900346E08C828D83F0900368E08E828F2C
:101380008380058C828D83E4F09061C5E0A2E350F8
:1013900014900344E06401700712127C920A8007E3
:1013A00012107B80F7C20AD38001C37F0202051DA1
:1013B00074F51204B774FE12044DECFEE9C39421D7
:1013C0004004C302149C894A8E29EE75F00CA4FCDB
:1013D000A8F0E428FD74603DFDEC241CF582ED12BC
:1013E00014B8851082851183F0EC241DF582ED126E
:1013F00014B8C0E07401120498D0E0F0EC241BF59E
:1014000082ED1214B8A2E61214A4600AE50AA2E062
:10141000B31214A470ACEEC394027C0050047D613E
:1014200080097D60EEC3139061C0F0EEA2E050022F
:101430007C40E50AA2E05008EC2420FCED3400FDDD
:10144000752600802F852608EA2508F582EB121400
:10145000B88C828D83F0EA2508F582EB1214B8C0AF
:10146000E0742A2526F8D0E0F68C828D83A3AC8226
:10147000AD830526E526C39940CB9061C0E4F0EE2C
:1014800075F00CA4FAABF0741C250AFC74603400EF
:10149000FDEC2AF582ED3BF583E9F0D374021204EA
:1014A00063020E21E433F50AF50885108285118365
:1014B000E5822508F582E5833400F583E022C082C9
:1014C000C083752600A826EA28F582EB1214B8C05E
:1014D000E0746B28F58274033400F583D0E0F005E6
:1014E00026E526C3940540DD020F96E5E170FC7504
:1014F000E191E5E170FC75E130E5E170FC75E13109
:10150000E5E170FC75E132E5E170FC75E133E5E1A0
:1015100070FC75E134E5E170FC75E135E5E170FCE6
:1015200075E13622C20AE5E170FC75E18122C0E076
:1015300074F212055D12103075E900759100759B0B
:101540000075BF007F010205BCC082C083D20BD2F0
:101550000D900504E4F090037B0219D3A2E092AF52
:1015600002167C74F71204B775082875090078080C
:101570001206187C007D007A327B05126CB70216C9
:101580007789081215872274632508F5827404127E
:101590002170E0227C9C7D037A007B7812296474A0
:1015A00002228D081215876C22C082C0837B001234
:1015B00015CC7583F8E06A70070BEBC394F040EF2D
:1015C00074F06B6003C38001D30219D48B82A882AC
:1015D000749C28F58274031221D6FAE8F5822274ED
:1015E000F71204B7A2AFE433FEC2AF791E12160C95
:1015F0001206187C9C7D037A007B7812281B7402EB
:101600001204631215A950DCEE02155C1227A675B0
:1016100008F075090078082274F71204B77508F00D
:1016200075090078081206181215941204639003C5
:101630009CE0645A7007900474E0F4701490039D69
:1016400074D7F0A314F0A37435F0A37421F0121B27
:10165000E57A008A82A8821222C7C0E01222BAD09C
:10166000E0F00AEAC3940440EA9004911203C390A4
:1016700061951203CF800574021204637F02020594
:101680001DC082C083A2F0920B120F8AE99004DD84
:10169000F0120F4FA20B906194500474808001E40B
:1016A000F07C9D7D037A8C7B041220AA7A8C7B04CB
:1016B0001214BE9004DDE064027003120FA9021937
:1016C000D474F51204B775080079001212D84003DB
:1016D000021843120F4F750ABF750B04780A1206E1
:1016E00018750ABD750B04780A1206187CBE7D04B5
:1016F0007A9D7B0412130E7404120463C2F0121656
:101700008190049DE060030218339004BFE0C3940D
:101710001C50030218339004BEE0641460030218E6
:10172000337E007F00750902E509C39412502085BD
:10173000090A750B00749D250AF5827404350BF5B2
:1017400083E0F87900EE28FEEF39FF050980D9EE35
:1017500054FFF89004AFE068600302182AEEF8EF37
:10176000F9E4E9F89004B0E068600302182A75080B
:1017700001750900E509C3940650457AFF7B04A969
:1017800009121BA79004AEE0F8900501E068702CE8
:101790009004ADE0F8900500E06870209004ACE0A3
:1017A000F89004FFE06870147A027B05A909121B07
:1017B000C4900502E060057508038004050980B443
:1017C0007406650960067403650870189004ACE03F
:1017D0009004FFF09004ADE0900500F09004AEE0BE
:1017E000900501F0750900E509C3940650197A02C5
:1017F0007B05A909121BC4900502E0700690050341
:10180000E06004050980E074066509700375080549
:1018100074016508700B90049EE0645470037508B1
:10182000027A967B00120F7D80107AF47B01120FF2
:101830007D80077AF47B01120F7D1214EB121524C0
:10184000120FA9122A70122124A9087F0402051D73
:1018500074F71204B7A2F09200C20C79001212D8E9
:1018600040030219C37508BF7509047808120618E9
:101870007508BD75090478081206187CBE7D047AC7
:101880009D7B0412130E740412046390049DE060A7
:10189000030219AF1219CA7A967B00120F7D121536
:1018A00024120FA9120F8AE970FA9004957408F0B7
:1018B000A200500D7A967B041221FD7A2C7B0180C8
:1018C0000EA374FFF0A3F0A3F0A3F07A207B031221
:1018D0000F7D9004FFE090049AF0900500E09004E2
:1018E0009BF0900501E090049CF01214EB1215247B
:1018F0007C0079087A957B041213B0D2F01216811D
:10190000120FA98030E0702D120F66A20C40030266
:1019100019C3120F667AFF7BFF120F7DD2F01216E9
:10192000810219C079011212D8400779021212D827
:101930005003121524120F8AE960D079001212D8D0
:1019400050E27508BF75090478081206187508BDBD
:1019500075090478081206187CBE7D047A9D7B0404
:1019600012130E740412046350CB90049DE06401C2
:1019700070939004BDE070BD90049EE0645570B516
:10198000A3E0F89004FFE06870AB9004A0E0F8904A
:101990000500E068709F9004A1E0F8900501E06800
:1019A00070939004BEE06405708BD20C021912642F
:1019B0000170101219CA7A647B00120F7D1215246F
:1019C000120FA9A20CE433021BA3120F66C2F0127D
:1019D000168122F0D083D0822274F51204B7EAFE79
:1019E000EBFF89088E828F83E024FE602114700350
:1019F000021A7C147003021AD9147003021B151406
:101A00007003021B36147003021B46021B4C740643
:101A100065087060A21E820B505A900504E0701B8E
:101A20009004FEE4F012262EE0C0E01223E6D0E09F
:101A30001224A540F09005047402F07AD87B0412B9
:101A4000245340307AD87B041221B48E828F83A332
:101A500085820A85830B780A12061879057CD87D61
:101A6000047AD87B0412240674021204637AD87BA9
:101A7000041224AB9005187402021B4B900504E07D
:101A80006050900517E41226427903122610504246
:101A9000900504E024FE600B149004C470157402D9
:101AA000F0800D9004C47401F07AC57B04122453B5
:101AB000900504E4F09004C07409F07AC17B04122C
:101AC000214279097CC17D047AC17B041222D8129B
:101AD0002601900518740380729004C0740AF07A8D
:101AE000C17B041221B4900504E070149004FEE45C
:101AF000F0122635C0E01223E6D0E01224A540F112
:101B00001214EB7C0179067AC07B041213B09005A5
:101B10001874048036900517740112264279101249
:101B20002610500BEE2404FAEF3400FB1221DB9058
:101B30000518740580151224F090037BE06007906F
:101B40000518740680059005187407F0900518E0D4
:101B5000F9021C77C082C08390037BE0602D900463
:101B6000FEE48010E0F8122623E0C0E0122163D0EA
:101B7000E012217512264940EBEC4D600690037B84
:101B8000121FE790037BE4F0D38001C30219D474E1
:101B9000F71204B7E9F8880874632508F58274041D
:101BA000121C7FF902167CC082C083E9121CB41299
:101BB0001BDF121CD9121BDFA3121CCA121BDFA3CE
:101BC000A30219D3C082C083E9C333FCE433FD749C
:101BD000C12CF58274033DF583121BDF0219D3E09B
:101BE0008A828B832274F81204B77E008E82A882C8
:101BF000E8C333FAE433FB749C2AFC74033BFDEC2A
:101C00002425121CAC2426F582ED121CA775F003C6
:101C1000A4FAABF0121C882431121C9F2432121C2F
:101C20009F2433F582EB121CAF24BB121CAC24BCE6
:101C3000121C92EE75F014A4FAABF0121FDCE47AD9
:101C400014F0A3DAFC749C28F874033400F9E82437
:101C5000C7F582E9121FF1EEF0E824D3F582E9120C
:101C60001CA724CDF582E9121C950EEEC3940650F4
:101C700003021BEC02229E7F0402051DF582EB127B
:101C800021D62233FAE433FB749C2AFA74033BFB1B
:101C9000EA22F582ED121C9922122170E4F022F55D
:101CA00082EB121C99EA22121C99E822F582ED12AD
:101CB0001C99EC2275F003A4F8A9F0749C28F87420
:101CC0000339F9E82431121CD222F0E82433121C23
:101CD000D222F582E912217022F0E82432121CD2BD
:101CE0002274F71204B77800790090052AE4F0A373
:101CF000F07E018E82AC82EA2C121C7CF508E8256D
:101D000008F8E93400F9E0C0E074182CF582740595
:101D1000121FF1D0E0F00EEEC3941240D6E8FCEAB8
:101D20002412121C7C6C700BE9F8EA2413121C7C40
:101D3000686003C38001D302167CC082C0838A829C
:101D40008B83E090052AF08A828B83A3E090052B99
:101D50000219D374F71204B7E9FC7D001215A260D2
:101D6000070DEDC3940640F4EDC333F8E433F97482
:101D70005728F5827404121DCAE0687013EDC3334E
:101D8000F8745828F5827404121DCAA3E0686036FE
:101D9000EDC333F8749C28F8740339F98A828B8375
:101DA000E0C0E0E824BBF582E9121FF1D0E0F08A40
:101DB000828B83A3E0C0E0E824BCF582E9121FF126
:101DC000D0E0F0D38001C302167C39F583E0F88AB5
:101DD000828B8322C082C0837B007A00EAC333F8FF
:101DE000E433F974C128F582740339F583E06001A6
:101DF0000B0AEAC3940640E4EB90055A0219D37427
:101E0000F21204B77900121581600709E9C394063C
:101E100040F4A2AFE433F8C2AF8982E582121C839A
:101E200024BDFC12200AC0E0EA24BF121FEED0E05D
:101E3000F0EA24BEFEEB122001C0E0EA24C0121F2B
:101E4000EED0E0F0EA24BBF508EB121FF58C828D92
:101E500083F0EA24BC1C12200A8E828F83F0900546
:101E600019E0850882850983F090051A121FE79012
:101E7000051BE0C0E0EA2425121FEED0E0F090053B
:101E80001CE0540EC0E0EA2426121FEED0E0F07CE5
:101E9000008982E58275F014A4FAADF012201424B2
:101EA00057121C7CC0E0EA246B121FEED0E0122017
:101EB0002A40DE7C008982E58275F014A4FA1220A3
:101EC000142443121C7CC0E0EA2457121FEED0E019
:101ED00012202A40E07C008C82AA82741D2AF5829E
:101EE0007405121C7FC0E0E975F014A4FEEDFFEE4E
:101EF0002AFAEF3400FB121FDCD0E012202A40D770
:101F00008982AA82EA75F003A4FCADF0749C2CFCD3
:101F100074033DFDEC2434FE122000C0E0EC2437B5
:101F2000F582ED121FF1D0E0F0EC2435F508ED124A
:101F30001FF5C0E0EC2438F582ED121FF1D0E0F07F
:101F4000EC2436F50AED3400F50B850A82F583E0C2
:101F5000C0E0EC2439F582ED121FF1D0E0F0EC2462
:101F600031F50CED3400F50D850C82F583E08E82A1
:101F70008F83F0EC24321E1E122000850882850912
:101F800083F0EC2433FCED12200B850A82850B8351
:101F9000F0900527E0850C82850D83F0900528E000
:101FA0008E828F83F0900529121FE7749C2AFA74A1
:101FB000033400FB90052BE0C0E0EA24D3121FEEAF
:101FC000D0E0F090052AE0C0E0EA24CD121FEED068
:101FD000E0F0E8A2E092AF7F0702051D74DF2AF56A
:101FE0008274033BF58322E08C828D83F022F5829C
:101FF000EB121CD5223400F509850882F583E02216
:10200000ED3400FF8E828F83E022EB3400FD8C8262
:102010008D83E022EDFB8C08EA2508FAEB3400FB07
:10202000749C2AFA74033BFBEA22F00CECC3940A7A
:102030002274F71204B7E9FEECFFEE7032EF701570
:1020400075080A7509007808120618EAFCEBFD7A93
:10205000327B05804A74016F704D75080A7509005E
:102060007808120618EAFCEBFD7A3C7B058030EF1D
:10207000701575080A7509007808120618EAFCEB55
:10208000FD7A467B05801874016F701B75080A7510
:1020900009007808120618EAFCEBFD7A507B05125D
:1020A0006C71740212046302167C74F71204B78A0E
:1020B000828B837402F0A3A3A3A3744FF07E0174F8
:1020C000035EF812211B75F00F84A8F075F00FEE77
:1020D000A428C0E08E08EA2508121FEED0E0F00E1A
:1020E000EEC3940440D97E018E08EA2508F8EB344B
:1020F00000F9E824FFF582E934FFF583E0FC8882EB
:102100008983E0C39CFCC394055006E02405C39C6E
:10211000F00EEEC3940440D002167CEC28F582ED5C
:102120001221D622C082C0839004FEE4F01221CF97
:1021300004F0700B9004FEE004F0C3940540EE023E
:1021400019D4C082C0839004FEE4F0E0F81221A903
:10215000C0E0122163D0E0122175F0C3940340EB7C
:102160000219D412216722EA28F582EB122170228B
:102170003400F58322F09004FEE00422C082C08384
:102180009004FEE4F01221F6FC1221A96C700B9071
:1021900004FEE004F0C3940340EB9004FEE064030B
:1021A0007003D38001C30219D4741728F582740711
:1021B0001223D522C082C0839004FEE4F01221CF06
:1021C000C0E0122163D0E01224A540F10219D4121C
:1021D00022A31221D622122170E022C082C0839055
:1021E00004FEE4F01221F6C0E01223BDD0E0122379
:1021F000F140F10219D4E0F8122167E02274F812DC
:1022000004B7EAFEEBFF90039CE0645A9004FE7072
:1022100013E4F01222C5C0E01222ADD0E01222D2A7
:10222000507C80EFE4F0122A8B1222A3121FF1C01F
:1022300082C083900564E0758305758265FAE02AA3
:10224000D083D082FAE02AC0E01222ADD0E0F09034
:1022500004FEE0F81222ADE0C0E0749D28F582741F
:1022600003121FF1D0E01222D240BBE4F01222C5CB
:10227000C0E01222BAD0E01222D240F1120F8AE955
:10228000FE120F4F9004911203C39061951203CF79
:1022900074026E7003120FA990039C745AF07F01B0
:1022A00002051DE0F8747628F5827403221222B12B
:1022B00022EE28F582EF12217022749128F58274A3
:1022C00004121CD522E0F8749D28F58274031221B3
:1022D000D6221223FD94042274F31204B78A0A8BC7
:1022E0000B8C088D09E9FE900517E0600814601B4F
:1022F000146035805B9004FEE4F01223C8C0E01245
:1023000023DBD0E01223F7504780EF9004FEE4F087
:102310001223C8C0E01223DBD0E01223F740F17A89
:10232000DE7B0412245380289004FEE4F01223C8BC
:10233000C0E01223DBD0E01223F740F1E4F0E0F834
:102340001223BDE0C0E01223DBD0E01223F140EE07
:102350009004FEE4F0E0F81223E6E0C0E01223B2BD
:10236000D0E01224A540EE7405F0E0F81223B2E4A8
:102370001223F740F5750CDE750D04780C12061863
:102380007C107AEE7B0479011226C8740212046371
:10239000750CEE750D04780C120618EEF9AC08AD4C
:1023A00009AA0AAB0B12240674021204637F060208
:1023B000051D74EE28F5827404121CD522740A28B7
:1023C000F5827405121CD522E0F8740728F5827492
:1023D000071223D522122170E4932274DE28F5829D
:1023E0007404121CD522740528F5827405121CD5BC
:1023F000221223FD940D221223FD941022F090044A
:10240000FEE004F0C32274F81204B7E9FE74081267
:102410000498E0F8A3E0F99004FEE4802D8C828D0E
:1024200083E089838882FFE06F8A828B83F0A3AA8E
:1024300082AB838C828D83A3AC82AD8388828983B7
:10244000A3A882A9839004FEE004F0E0C39E40CDDF
:1024500002229EC082C0839003BCE0F4702FA3E0F0
:10246000F4700FA3E0F4700AA3E0F47005A3E0F4A5
:1024700060309004FEE4F0E0F81224E5E0C0E012E1
:102480002163D0E01224A540EED30219D4E0640108
:1024900070E0A3E070DCA3E070D8A3E070D4A3E008
:1024A00070D0C380E51223FD940522C082C08390C2
:1024B00003BCE0F4702BA3E0F47026A3E0F47021D9
:1024C000A3E0F4701CA3E0F470179004FEE4F01293
:1024D00021F6C0E01224E5D0E01224A540F1D3801B
:1024E00001C30219D474BC28F5827403121CD522CE
:1024F00074F81204B7EAFEEBFF8908900504E09037
:1025000005176003E4800274021226421912261095
:10251000502474FC250890037BF09004FEE48011A5
:1025200012262EA3A3A3E0C0E0122623D0E012219E
:102530007512264940EA9004C0740BF090052E7481
:10254000FFF090037BE0640C707C7E007A2F7B05AB
:10255000EEF9121BA7900387E0F8900531E0687050
:1025600033900386E0F8900530E06870279003858B
:10257000E0F890052FE068701B7A2C7B05EEF912CD
:102580001BC490052CE0600CEEF9121B8FE990053E
:102590002EF080070EEEC3940640B190052EE0F4B5
:1025A000605C900609E054F79004C9F0900694E04E
:1025B00060079004C9E0D2E3F09005B9E0640170CF
:1025C000059004C9E4F07AC67B0412214279037CA9
:1025D000C67D047AC67B041222D87AC17B041221FC
:1025E000B4900504E070149004FEE4F0122635C0A7
:1025F000E01223E6D0E01224A540F11226010222C7
:102600009E1214EB7C01790A7AC07B041213B0226B
:10261000AC82AD83AA82AB831222D8AA82AB83128A
:10262000217C22747C28F5827403121CD522E0F8E8
:102630001222B1A322E0F874C128F5827404122199
:10264000D622F08E828F83A322F090037BE0F89055
:1026500004FEE0C39822C082C083906243E4F0A3EA
:10266000F0A3F0A3F0A3F0A3F075F30075F40075E8
:10267000F50075F60075FD0075F70075FD0075F73E
:1026800000D083D08222C0E0C0D0C082C083C29874
:10269000C29990055BE0600D9006D6E014F06012E0
:1026A00075B30180109006D7E014F0600575B30390
:1026B00080037402F0D083D082D0D0D0E0327F018A
:1026C00002051D3400F5832274F81204B7E9FC7486
:1026D00008120498E0F8A3E0F975B34590055CE4AE
:1026E000F0E0FEE82EF582E912279540F4E5B3A26A
:1026F000E350FA74016C700575B341800375B34300
:10270000E4F0E0F8EA28F582EB12279540F40000A7
:1027100000000000000000000000000000000000B9
:1027200000000000000000000000000000000000A9
:102730000000000000000000000000000000000099
:102740000000000000000000000000000000000089
:102750000000000000000000000000000000000079
:102760000000000000000000000000000000E4F095
:10277000E5B2C0E0E0F8EA28F582EB1226C3D0E02B
:10278000F090055CE004F0C3941040E4E5B3A2E3EC
:1027900050FA0226BE3400F583E0F5B190055CE006
:1027A00004F0C3941022C082C083906270E0A2E75C
:1027B00040F8E9906272F09062717400F09062707B
:1027C000E0D2E0F0906270E0A2E740F8D083D082DF
:1027D00022C082C083A2AF92D5C2AF906270E0A245
:1027E000E740F8906270E0D2E1F090055DE0906221
:1027F00073F090055EE0906273F090055FE0906288
:1028000073F0900560E0906273F0906270E0A2E671
:1028100040F8A2D592AFD083D0822274F11204B7CF
:10282000EAFEEBFF8C0C8D0D740F120498E0F50E90
:10283000A3E0F50F8E088F097402780812042B901C
:102840000561E508F0A3E509F0E50E450F70030208
:10285000295F900561E0F8A3E0F9E4E9F89062727D
:10286000F0900561E0F8A3E0F9E8906271F090075C
:102870001A78081203A1AA08AB09AC0AAD0B90059F
:102880005DE508F0A3E509F0A3E50AF0A3E50BF088
:10289000EE54036060EE5403900563F0900563E02E
:1028A000C394044003022949850C82850D83E0C04E
:1028B000E0900563E0F87900745D28F582740539CD
:1028C000F583D0E0F0850C82850D83A385820C858D
:1028D000830DEE2401FEEF3400FFE50E24FFF50E1C
:1028E000E50F34FFF50FE50E450F605D900563E0E1
:1028F0002401F080A79005637400F0900563E0C3A5
:1029000094045045850C82850D83E0C0E0900563FA
:10291000E0F87900745D28F582740539F583D0E01C
:10292000F0850C82850D83A385820C85830DE50ED1
:1029300024FFF50EE50F34FFF50FE50E450F600996
:10294000900563E02401F080B27AD17B27126B9F5F
:10295000900561E02401F0A3E03400F00228497FF3
:102960000802051D74F81204B77408120498E0F800
:10297000A3E0F9801BEAF582EB4480F583E08C82CA
:102980008D83F0A3AC82AD83EA24010AEB3400FB13
:10299000E8FEE9FFEE24FF18EF34FFF9EE4F70D5A3
:1029A0007F0102051DD2AF22C2AF22EBC313FBEAA7
:1029B00013FAEAF8EBF9E824FFFAE934FFFBE849F7
:1029C0006013000000000000000000000000000094
:1029D00000000080DD2274F81204B7EAFEEBFFEE7F
:1029E000F8EFF9E824FFFEE934FFFFE84960097ACF
:1029F000E87B031229AB80E77F0102051D89BE75C4
:102A0000870100227480659E70FA22C082C083E52F
:102A1000E170FC9061B1E0D2E0F09061A0E4F09050
:102A20006184F0E5E170FC75E1029061BFE060FA5D
:102A3000E0F5BCE0F5BC122A5A900564F09061BF45
:102A4000122A5A900565F0E5E170FC75E10190618C
:102A5000B1E0C2E0F0D083D08222122A63122A634E
:102A6000E5BC22E0F5BDE0F5BDE0F5BDE0F5BD2239
:102A7000C082C083E5B4540C700FE5BC900564F0CF
:102A8000E5BD900565F043B40480CAC082C08343AD
:102A9000B404E5B4540C70FAE5BC900564F0E5BDEF
:102AA00090056580AFC082C08375E40075E5007550
:102AB000E60075E7009062A3E4F0A3F0C2B9759454
:102AC0000075C300C2BA759C7775CBF675CC44759A
:102AD000CDFB75CE00D2BB75EBE475EC0475EDFA59
:102AE00075EE00C2BCD083D0822274F51204B78A7E
:102AF000088B098C0A8D0BE59DA2E050FAE59590B4
:102B00000566F0E596A3F0E597A3F0A3E4F0900541
:102B100066780812038E900567E0F596A3E0F597B6
:102B2000E5ADA2E050FA900566E0F5957F04020558
:102B30001DC0E074F212055D90056AE0F8A3E0F9AB
:102B4000E8496008E0F58388821204A27F0102054B
:102B5000BCC082C08390056C7458F0D083D08222B0
:102B6000C082C08390056CE064F0F0F5C964F0F0B9
:102B7000F5C980E774F71204B790059FE06003027F
:102B80002C289005ACE4F0A3F0A3F0122DBA1206A5
:102B90005A000002FE2BB52B9C2BD82B9005B3E0DE
:102BA00064137004A3E0640370769005AC746DF058
:102BB000A3740580469005B3E07004A3E06402703E
:102BC0005F9005B7E064017002A3E070539005AC1C
:102BD0007409F0A3740680239005B3E064047004C4
:102BE000A3E06403703A9005B7E064207002A3E0AC
:102BF000702E9005AC74E1F0A3740512307390054B
:102C0000ACE0FCA3E0FDA3E0FEEC4D4E60129005AD
:102C1000B7E09005AF12307390059F7402022DB497
:102C200090059F7404022DB464026003022DB0125B
:102C30002DBA12065A000002202C402C5A2CF72CD8
:102C40009005B3E07004A3E064026003022DB0902D
:102C50000609E090060AF0022DB09005B3E0641377
:102C60007004A3E064036003022DB090056DE0647E
:102C7000136003022DB0A3E01460161460251460E5
:102C80003314603914604714605324FD6059022DD9
:102C9000B0A3E0C394099006C75004740780B774CA
:102CA0000A80B3A3E014C394094003022DB0E0905E
:102CB00006C680A29006C6E090056F8099900457E2
:102CC000E090056FF0900458E09005708088A3E0D4
:102CD00060087401900694022C56E480F7900694E4
:102CE000E0A2E0E43380D1C228A3E06401600302E3
:102CF0002DB0D228022DB09005B3E064047004A377
:102D0000E064036003022DB09005E1E06404600319
:102D1000022DB09005E3E0645A6003022DB0A3E0F9
:102D200064A56003022DB0A3E0645A6003022DB0D5
:102D30009005E2E014600F14601424FD601B146021
:102D40002A14605F806A740190058F022C569005EA
:102D50008FE0605C12097680579005E6E090058D63
:102D6000F09005E7E090058E022C567C009005E778
:102D7000E0F8ECC39850398C82A88274E828F58278
:102D800074053400F583E0C0E09005E6E028F8E43F
:102D90003400F9749C28F582740339F583D0E0F08F
:102DA0000C80CA1215DF7A0A7B001229D612161877
:102DB00090059FE4F07F0202051D9005B5E0F5083F
:102DC000A3E0F50978082274F51204B79005ACE485
:102DD000F0A3F0A3123078241F6012146031147035
:102DE00003022E73147003022EC1022EE790056DAC
:102DF0007404F0A314F0900692E090056FF0E527BC
:102E0000A3F0E5BFA3F0A20AE433A3F0022EDB9007
:102E1000071E78081203A190059078081203B49059
:102E20000594E4F0A3F0900594122EF6F508E4F56D
:102E300009F50AF50B900590780812038E90059419
:102E4000122EECC3947840DE90056D7406F0A374E6
:102E500003F0900590E090056FF0900591E09005EB
:102E600070F0900592E0900571F0900593E0900568
:102E70007280989005B7E024FE90056DF0A374036E
:102E8000F090059614802690058D122EF6C0E090E5
:102E90000596E0F8746D28F58274053400F583D04A
:102EA000E0F090058D122EEC900596E004F0E0FA2B
:102EB0009005B7E0F8A3E0F9C3EA98E49940C88028
:102EC0001A9005B712062D90058DE0FCA3E0FD7A5F
:102ED0006D7B05126C7174021204639005AC746D05
:102EE000F0A374051230737F0402051DE02401F085
:102EF000A3E03400F022E0F8A3E04480F98882895E
:102F000083E022C082C08390059FE060030230709E
:102F10009005B4E0F9E4700204696003023024A370
:102F200012316A7025A3E064087002A3E060030216
:102F3000302490059F7401F09005AC74BCF0A3742C
:102F400005123073A3740802306C9005B5E064017B
:102F50007002A3E060030230249005B7E0640670BD
:102F600002A3E0701890059F7401F09005AC740105
:102F7000F0A37406123073A3740602306C9005B38C
:102F8000E0C39404400302302490059F7401123082
:102F90007824FB603224FB600E24FD607024FE6008
:102FA0003E1460520230709005B7E064037002A3D3
:102FB000E0700C9005AC74CCF0A3740502306C90FA
:102FC000059F740402306F9005B7E064027002A39D
:102FD000E070EC9005AC74CFF0A3740502306C90F7
:102FE00005B7E064037002A3E070D49005AC74D31D
:102FF000F0A3740580769005B7E064037002A3E047
:1030000070BD9005AC74D6F0A37405805F9005B7D1
:10301000E064087002A3E070A69005AC74D9F0A338
:10302000740580489005B4E0F9E470037403697096
:103030008EA3E064017002A3E070849005B7E064A1
:10304000087002A3E06003022FBF9005B3E0641391
:103050006003022FBF90059F7401F09005AF7408C4
:103060001230739005AC746DF0A37405F0A3E4F016
:1030700002313AF0A3E4F022F09005B7E0F8A3E0C3
:10308000F99005AFE8F0A3E9F09005B3E022C08223
:10309000C08390059FE070439005B3E054FEF8A311
:1030A000E0F9E8497012123167700D9005B5C3E080
:1030B0009402A3E09400400790059F7404801B9045
:1030C00005B5E0600514600B80119005B3E0900633
:1030D0000780079005B3E0900608F0805DC082C0CD
:1030E0008390059FE070539005B312316A70199078
:1030F00005B7E064017002A3E0700D9005B5C3E070
:103100009402A3E09400400790059F7404802A90E5
:1031100005B5E0600514600D80179005AC7407F0EC
:10312000A3740680099005AC7408F0A374061230ED
:10313000739005AF74011231ABF0D083D08222C0FE
:1031400082C08390059FE0701C1231677008900563
:10315000B512316A600790059F740480079005B42A
:10316000E090060BF080D39005B7E0F8A3E0F9E813
:103170004922C082C08390059FE0702D9005B7E082
:1031800064017002A3E070089005B512316A60070F
:1031900090059F740480119005AC740BF0A3740625
:1031A000123073A3041231ABF0808FF0A3E4F090DF
:1031B000059F0422D083D08222C082C083E9FCEA2A
:1031C000FD7A007B008007900598E012320C900594
:1031D00097E0F8A3E0F99006DAE0687003A3E069ED
:1031E000601C1232006C700D900597E0FAA3E0FBB2
:1031F00012320C80091232006D70CCED60C980B4BF
:10320000900598E0F5838882A3E49322F583888271
:10321000E493F8900597E028F8A3E03400F99005CE
:1032200097E8F0A3E9F022C082C0831232707A00DE
:1032300079011231B90231B474F71204B7E9FEEA28
:10324000FF1232707A0079021231B9EA4B601CEE3B
:1032500060108A828B83A3A3A3A3A3E4936E70E47C
:103260008009EFF874FF281F0470D97F0202051D42
:103270009006D8E0F8A3E0F9900597E8F0A3E9F00C
:103280002274F51204B7EAFF8B087A001232387AFA
:103290000279041231B9EA4B60188A828B83A3A3A6
:1032A000E4936F70EA8A828B83A3A3A3E4936508F7
:1032B00070DD7F0402051D74F71204B7E9FE1232B7
:1032C000707A0079031231B9EEF874FF281E047089
:1032D000F08098C082C0837A0079011232388A82E5
:1032E0008B83A3A3A3A3A3A3A3E493A2E69005AB1C
:1032F000500474018001E4F09005AAE4F090620F9C
:103300007403F0E0A2E750FB90620BE0D2E1F00220
:10331000366EC082C0839005997402F0A3E4F090E9
:10332000059FF079031235BB90060B747DF0900673
:10333000077401F0A3F0754D00754E0002366E74EF
:10334000F51204B790620EE0FEE4F0906211E0FF27
:1033500090059FE064057026EFA2E0401C9005B345
:10336000E0F8906200F0900599E0C39404500AE8F8
:103370006004740380027402F090059FE4F0EFA2F1
:10338000E25009906211E4F090059FF0EFA2E45042
:10339000239062117480F090059F7408F0E54D450C
:1033A0004E6009854D82854E831204A290059FE4EC
:1033B000F0023435E064027065EFA2E0505690628E
:1033C00016E0F50A9005AC120629A90A7A207B625C
:1033D0001235F37403120463850A089005AF1235A1
:1033E000B01235A3250A123591E0F8A3E0F9E849B7
:1033F0006004744080027448906211F0E8497014CF
:10340000E54D454E6009854D82854E831204A2909C
:10341000059FE4F0EE90620EF07F0402051DE0646B
:10342000077009854D82854E831204A290059FE0A6
:10343000600302351AEFA2E050DA7508B17509058C
:10344000750A00780812061479087A207B62123512
:10345000F37403120463754D00754E009005B1E0DE
:1034600054E0601C24E070030234F424E0606F2414
:10347000C0604524E070030234FF24E0606B8030BC
:10348000A3E014601C24FE601324FE600A24FC6088
:103490001524FE601680191262FF806C1262F380A0
:1034A000671262E780621266B3805D1267E080583F
:1034B00090059F7404F08058A3E0600E24FA600F1A
:1034C00024FE601024FE601180E612612F80391204
:1034D00063318034126684802F126783802A754D91
:1034E000EB754E5F125FEB801F754DEE754E5F12F0
:1034F0005FEE8014754D96754E5F125F968009756C
:103500004DC1754E5F125FC190059FE06404700469
:10351000746080027440906211F090059FE0640135
:10352000705B906211E0A2E150030234147F0290BC
:1035300005AFC3E09420A3E09400500A9005AFE0EB
:10354000F50A7F0A8003750A209005AC120629A9A6
:103550000A7A207B6212361A7403120463850A0801
:103560001235A325081235911235B0EF906211F093
:10357000E50AC394204003023414023400E06406D8
:103580006003023414854D82854E831204A20234F6
:1035900014F9EA3400FA9005ACE9F0A3EAF0A3EBE1
:1035A000F0A3229005ACE0F9A3E0FAA3E0FBE92246
:1035B000C3E09508F0A3E09400F02274F71204B77A
:1035C0007800880874A02508F58274051235E74054
:1035D000F17800880874A52508F58274051235E78E
:1035E00040F17F0202051D3400F583E9F008E8C3CD
:1035F00094052274F61204B7EAFCEBFDE9F8740AAC
:10360000120498123649600D8C828D83E012037883
:1036100012363E70F37F0302051D74F61204B7EAFA
:10362000FCEBFDE9F8740A120498123649600D1299
:10363000035E8C828D83F012363E70F380D7E924CE
:103640000109EA3400FA18E822E0F508A3E0F509D8
:10365000A3E0A908AA09FBE822C082C083E990621E
:103660000EF0906211E0A2E05003D38001C3D0833A
:10367000D0822274F71204B7E9FD7E0080248E0800
:10368000EA2508F582EB3400F583E0C0E0EDC333B2
:10369000F8E433F9E82420F582E93462F583D0E0D8
:1036A000F00EEEC39C40D79062117401F00235E237
:1036B000C082C08390624BE0A2E2401E758B00C2C4
:1036C000E843AC20439A0290620FE0C2E1F0E0A22E
:1036D000E740FB90624BE0D2E2F0809274F5120476
:1036E000B78A0A8B0BECFEEDFF740B120498E0F521
:1036F00008A3E0F509740D120498E0F8A3E0F98836
:103700008289831232D3850A6B850B6C85086F859D
:1037100009708E6D8F6E8582718583727AFF7BFF53
:10372000126005906201E0D2E0F090620FE0D2E317
:10373000F07F0402051DC082C083A866A967E85413
:103740000460221229A8E566E567756600756700C2
:103750001229A5123312856F828570831204A290FC
:1037600062017401F0A866A967E85410601412376A
:10377000FB54EF12380A12333F857182857283122F
:1037800004A2A866A967E8A2E050191237FB54FE0C
:1037900012380A9005AAE0F9856D82856E831204BD
:1037A000A2123802A866A967E854026015856B82E8
:1037B000856C831204A28571828572831204A21221
:1037C0003802A866A967E854206011857182857265
:1037D000831204A21237FB54DF12380AA866A967C5
:1037E000E8544060118571828572831204A21237F9
:1037F000FB54BF12380AD083D082221229A87866DF
:10380000E6221229A87866E654FDF608E654FFF68B
:103810001229A522C2AF75C6807480659E70FA1207
:103820002656122A0B122B51120990120B34122A0F
:10383000A5121549121618125CDC75080D75093AA7
:1038400078081206187508DA75093978081206180A
:103850007CF07D397A187B3A1236DC7404120463EA
:10386000125A7CD2F0121681121DD49005B974023E
:10387000F0D2AF803B900653E0700F9005BCE4F0AF
:103880009005BEF0A31239CF04F012685A7401906B
:1038900005BBF0125B0AE070FD123A189005B9E022
:1038A000602414603814600814700302394680ECF8
:1038B000900599E064046009E56860F4125DFB809E
:1038C000F79005B9E4F0123BA512576C125B0A128F
:1038D0005B43125AE1125C4B125DFB80BF125DFB31
:1038E000A20E50B81212D55014755918755A007995
:1038F000001212D85004D21E8003123BA5900695E8
:10390000E060139005BCE4F09005BE7471F0A3E490
:103910001239CF12539B125B39500302387590064F
:1039200053E06003023875900695E0A2E0C0D0A293
:103930001E721D92F01204A4158172F0721C5003C5
:1039400002387B02389C900344E064037014C3E5A2
:10395000559410E556940040F575550075560012C3
:1039600009FCE06401600302389CE4F508F509787D
:1039700008120618750875750906780812061812D7
:10398000538A120463400302389C7A008A82A88218
:10399000745428F5827406125A08C0E012537ED07F
:1039A000E0F00AEAC3940840E3125A0C64CC6003C6
:1039B00002389C745228F5827406125A0864CC604E
:1039C0000302389C43FD17D281123A6802389C12D8
:1039D000534FA3F0A3F090065322C082C083125C21
:1039E000DC123A266005E064037002E4F0025A65D6
:1039F00074F81204B7E9C20E6002D20E9005B9E065
:103A000070037401F0125AAE7F0102051DC082C01E
:103A100083E49005BB025A64C082C083123A2670C8
:103A200002E4F0025A65125A6A9005B9E064012274
:103A3000C082C0837902123659402AD21490059967
:103A4000E064047020900608E060087C067A017B40
:103A500006800D900602E05403F07C037A027B0698
:103A60007902123673025A6574F71204B77901129B
:103A70003659403C900653E0C2E0F0123AE5120499
:103A80003A850853850954F88808125A00700708C7
:103A9000E8C3940840F27408687002D21090059947
:103AA000E06404700B7C087ABC7B057901123673E4
:103AB00002592774F71204B77901123659402212BD
:103AC0003AE512043A850853850954900599E06453
:103AD00004700E7C087AC47B057901123673D3809A
:103AE00001C302592790060BE0F50875090074021E
:103AF00078082274F61204B779021236595003027C
:103B00003BA07901750801750900E9780812043AAB
:103B1000900653E055086015750801750900E978AD
:103B20000812043AE508F4F8E058F0800709E9C300
:103B3000940740D0E914601114602314602E1460BF
:103B40003D14604014603D80429005CDE07006A3B6
:103B5000E07002D2117ECC7F05750A03802D90059E
:103B6000D0E07002D2127ECF7F05801C9005D4E099
:103B70007006A3E07002D2137ED37F0580DB7ED671
:103B80007F0580D57ED17F05750A02900607E0602B
:103B90000FA3E0600BAC0AEEFAEFFB79021236736A
:103BA0007F0302051D74F71204B7A21E40221216ED
:103BB000C1E990069AF06072D21EC22264016005CB
:103BC000E064037002D21F90069BE4F0A3F0805AD9
:103BD000A21F5015D2F0121850E9604ED21C900668
:103BE0009BE4F0A3F0C2228041A225400890069AEF
:103BF000E064057013C2F0121850E9602D90069B26
:103C00007448F0A3747180C579001212D8501BE477
:103C1000F508F5097808120618750875750906780B
:103C20000812061812538A1204639006767401F083
:103C3000E0F91212D8400302533DE064016008E04D
:103C400064026003024DF3E4F508F50978081206F2
:103C500018750875750906780812061812538A1225
:103C60000463C217900675E064016003023D04908E
:103C70000674E0F97A547B061219D9E924FD60062E
:103C800024FD607C8010A21C500CD21D90069B74F9
:103C900020F0A3744EF0A217400302533D90067526
:103CA000E06401700B7C747D067A547B06121B5411
:103CB000125965400302533D90064CE064016003D5
:103CC000024BF7900674E0640C6003024790900684
:103CD000C8E0C0E0900698E0F8D0E0487003023FEA
:103CE0008E90065CE060030240C5900655E0540FDC
:103CF00060030240C5E4900698125DE1F00240C501
:103D0000D2178099A21C50F8900654E0645C70436E
:103D1000721D4003023EF07A547B06121CE1400300
:103D2000023C96D21B900677745DF0A37401F0A25A
:103D3000255003023C8C900663E0900679F09006D3
:103D400064E090067AF0900665E090067B12558F4D
:103D5000023C8CE0645D703012542A6003023EF035
:103D60001253BC6003023EF01253B16003023EF0F6
:103D7000A21B4003023EF0D221D22290069B74483F
:103D8000F0A37471F002533DE0645E7059900679BF
:103D9000E0F8900659E0686003023EF090067AE091
:103DA000F890065AE0686003023EF090067BE0F867
:103DB00090065BE0686003023EF07A557B06121DB8
:103DC0003A90067774DFF0A3740112558F12549D58
:103DD000C223900655E0A2E24004D2218002C22113
:103DE000755CFF023C96E0645F702212542A600307
:103DF000023EF01253BC6003023EF01253B1600366
:103E0000023EF0D22112549DD22202533DE0646062
:103E1000706C900679E0F8900659E0686003023E05
:103E2000F090067AE0F890065AE0686003023EF0EF
:103E300090067BE0F890065BE0686003023EF0903D
:103E40000655E0F55C755B0090067774E1F0E55C83
:103E500054F86003755CFFE55CA3125470F55E12C4
:103E600014EB7C0279057A777B061213B090069BDF
:103E70007460F0A3746DF0C221C222023C96E0642B
:103E800061703012542A70681253BC70631253B1BF
:103E9000705E755B01755F0012156390068C12539E
:103EA0004EA3F0E55C6003023C96D221D223D222DD
:103EB000023C96E06464703812540A70331253E482
:103EC000702E1253DA7029900655E090068C125429
:103ED0007090068D12554690068E1254EB90068F08
:103EE000F0535CFBE55C600302533D12549D80BAC5
:103EF000E55B606A900654E064627062900679E067
:103F0000F8900661E068600302533D90067AE0F89D
:103F1000900662E068600302533D90067BE0F890F3
:103F20000663E068600302533D1253F47024E55FBA
:103F30007003023C961253A012043AE508F55DF4B2
:103F4000525CE9900678F090067774E312558F0280
:103F50003C96E06003023C96755F01023C96900639
:103F600054E06463600302533D12540A6003025339
:103F70003D1253E4600302533D1253DA60030253CF
:103F80003D12549DE55C600302533D023EAA90063B
:103F900055E0A2E740030240C5900695E0600302A9
:103FA00040C5900694E060030240C5755C00800A3D
:103FB000E55CC3940840030240747508017509006C
:103FC000E55C780812043A90065CE055087003023C
:103FD00040B9E55CC3940340179006C7E0640A60EB
:103FE00003E070217404655C60067405655C7015FF
:103FF0009005CDE0600F12550B125496F0740190AD
:104000000698023CFC7403655C60067407655C708E
:104010001A9006C7E0640A6003E0700F9005D0E0D4
:104020006009E412550012549680D17406655C70E4
:10403000239006C7E0640A6003E07018900693E0DE
:104040006012740612595D7401900698125C1FD2BA
:10405000E3023CFCE55C24FDC39405505C9006C77C
:10406000E0640770549005D0E0604EE4125496125C
:1040700055008088750801750900E55C24F878080A
:1040800012043A900655E05508602E7408655C608D
:10409000127409655C600C740A655C6006740B65DB
:1040A0005C70BA9006C7E0640A6003E070AF9005E8
:1040B000D0E0600302402280A4055CE55CC3940C60
:1040C0005003023FB0900694E0C0E09006C8E0F8CC
:1040D000D0E0586022900655E0A2E740069006C95D
:1040E000E06014900655E054F0F090065CE4F004B3
:1040F0009006C9F00246F8900698E060030246FE7A
:10410000900655E0A2E65025A2E7501B9005CDE0B1
:104110007009900699E070030246F8125C29740158
:10412000900699F002534BE490069980C69006944D
:10413000E0900655605AE0A2E7505A90065CE070A5
:1041400008900655E0540F6005E4900697F090063D
:104150005CE0A2E04003024388755C021259FD64F2
:104160003A6009055CE55CC3940640F07406655C42
:1041700070239005CDE060030245189005CC7410C3
:10418000F0A374E2125DEA900651E0D2E10245121A
:10419000E0A2E750A6755C00750801750900E55CB2
:1041A000780812043A90065CE05508700302424415
:1041B000E55CC3940340179006C7E0640A6003E01F
:1041C00070127404655C60067405655C7006900589
:1041D000CDE0707C7403655C70139006C7E0640AE0
:1041E0006003E0700E9005D0E0706580067407658E
:1041F0005C60F2E55C24FDC39405500E9006C7E0B8
:10420000640770069005D0E070467406655C700C1B
:10421000900693E060061254D7F08034755B02126A
:104220005372125A087014E55C243AC0E012536AC3
:10423000D0E0F074019006C8F08009055BE55BC32F
:10424000940840DB055CE55CC39408500302419888
:10425000755C009005D0E07046750801750900E5B1
:104260005C780812043A900655E055086028755BA2
:1042700002125372125A087014E55C2442C0E01214
:10428000536AD0E0F074019006C8F08009055BE540
:104290005BC3940840DB055CE55CC3940440BA90C2
:1042A00006C7E0640A6006E0600302433290065CE1
:1042B000E05437701E9005CDE06018900655E0A2DE
:1042C000E650030246F89005CC7410F0A312550B8B
:1042D0000240F3900655E0540F703090065CE054B5
:1042E0008870289005D0E0602264B970030246F817
:1042F000E064B570030246F8E064C570030246F856
:10430000125C1BC2E21255050240F390065CE0A26B
:10431000E650030246F8900693E064026008E06409
:104320000360030246F87405F075570075580002E3
:1043300046F890065CE0540770069005CDE0708664
:10434000900655E0540F701D90065CE054F870150F
:104350009005D0E0600F64B970030246F8E064B5E0
:10436000709E0246F890065CE0A2E650030246F812
:10437000900693E064026008E0640360030246F87C
:104380007405F075570880A4A2E15031755C0212E3
:1043900059FD643B6009055CE55CC3940640F0741C
:1043A00006655C60030241959005CDE0600302451F
:1043B000189005CC7410F0A374EA024184A2E25074
:1043C00031755C021259FD643C6009055CE55CC313
:1043D000940640F07406655C60030241959005CD3B
:1043E000E060030245189005CC7410F0A374E90254
:1043F0004184A2E4503F755C021259FD643E60099D
:10440000055CE55CC3940640F07406655C600302DD
:1044100041959006C7E0640A6006E0600302451813
:104420009005CDE060030245189005CC7410F0A310
:104430007470024184A2E5503F755C021259FD641C
:104440003F6009055CE55CC3940640F07406655C5A
:1044500060030241959006C7E0640A6006E06003CD
:104460000245189005CDE060030245189005CC7414
:1044700010F0A3746F024184A2E65038755C0212FA
:1044800059FD64406009055CE55CC3940640F07426
:1044900006655C6003024195900693E064016078D4
:1044A000E064026073E06403606EE06404606912BB
:1044B00054D78063A2E7502E755C021259FD644107
:1044C0006009055CE55CC3940640F07406655C60B9
:1044D000030241959005D0E0703E74C1125C1FD27A
:1044E000E21255058031900693E06403700774056D
:1044F0001254D180229005CDE0601D90065CE054FE
:10450000377015900697E0700F125DEF900651E03E
:10451000C2E11254B7D2E1F090065CE0A2E3502F62
:10452000755C021259FD643D6009055CE55CC3944D
:104530000640F07406655C60030241959005D0E08A
:1045400060030246F874BB125C1FD2E2024305A26C
:10455000E45037755C021259FD643E6009055CE564
:104560005CC3940640F07406655C6003024195905C
:1045700005D0E060030246F89006C7E064076003D8
:104580000246F89005D074C380BDA2E55037755C33
:10459000021259FD643F6009055CE55CC394064066
:1045A000F07406655C60030241959005D0E06003FD
:1045B0000246F89006C7E0640760030246F89005DB
:1045C000D074C48082A2E6501F755C021259FD644B
:1045D000406009055CE55CC3940640F07406655CC8
:1045E00060030241950246F8A2E7502A755C021268
:1045F00059FD64416009055CE55CC3940640F074B4
:1046000006655C60030241959005D0E060030246B8
:10461000F874C1024547900655E0A2E0502A755C47
:10462000021259FD64426009055CE55CC3940640D2
:10463000F07406655C60030241959005D0E060036C
:104640000246F874BC024547A2E1502A755C02128A
:1046500059FD64436009055CE55CC3940640F07451
:1046600006655C60030241959005D0E06003024658
:10467000F874B6024547A2E25027755C021259FD54
:1046800064446009055CE55CC3940640F07406650B
:104690005C60030241959005D0E0705C74B7024500
:1046A00047A2E35027755C021259FD644560090575
:1046B0005CE55CC3940640F07406655C60030241EF
:1046C000959005D0E0703174B80245479005D0E070
:1046D000602690065CE054F86008900655E0540FA0
:1046E00070169005D0E064B5600EE064B960099082
:1046F0000697E07003024300900674740BF0754F48
:1047000000755000E4900695125519A2E7502090CC
:104710000654E0701A900656E07014900655E05466
:104720000F700C90065CE070067401900695F09096
:104730000655E4F0F55CA85C74BC28F5827405129B
:10474000541B603E125398D21A755B00801AA85B06
:10475000745428F5827406125A08C0E012537ED0B1
:10476000E0F06002C21A055B855B0812543840DE37
:1047700090065112539BA21A400302533DC2E0021D
:104780003D84055CE55CC39408400302533D80A66C
:10479000754F00755000900654E06041146052243B
:1047A000FC7003024A5124F57003024A2024FE7073
:1047B000030249F2147003024BD624B37003025370
:1047C0003D14700302533D14700302533D147003F3
:1047D00002533D24FE700302533D024BD0900674F9
:1047E000E06404600302533D900653E0D2E0023DD2
:1047F00084900674E06409600302533D75510075AE
:104800005200D218900655E0541F9006526004746E
:10481000018001E4F0A228900655E0400302493AE5
:10482000A2E25031A20F402DD20F9005D374151281
:104830005DEAA374041254B7D2E3F090064FE4F09B
:1048400090065012547060030249C5A3E060030251
:1048500049C502533DA20F400302490EA2E2400E99
:10486000125C36900656E060030249C580DDA3E085
:104870007004A3E06079900656E0A2E75002F404C9
:10488000125543A2E75002F4041254C1502190067D
:1048900056E0F91255A3E99005D7125DEA9005D7C5
:1048A000E0700302533D900653E0D2E4023D849051
:1048B0000657E0F91255C2E99005D8F09005D7E403
:1048C000F0A3E070E1900602E0F8900655E0540392
:1048D000687009900602E0700302533D900655E0AF
:1048E0005403900602F0900656E4F0A30249C4C2B5
:1048F00018900655E064047009900602E070030207
:10490000533D900655E054039006020249C49006B8
:1049100002E07019900655E07013A3E060030249AD
:10492000C5A3E060030249C5C21802533D900602C8
:1049300012542D70030249C580C8A2E25064A3E05E
:10494000701BA3E07017900696E070799006021233
:10495000542D7006E0600302533DE080AB7401907B
:104960000696125470A2E75002F404125543A2E7CF
:104970005002F4041254C1500302533D900657E014
:10498000F91255C2E9900605F090060212534E90B6
:10499000060104F0900605E0700302533DC21402C4
:1049A000533D90060212542D700EE0600BA3E07090
:1049B00007A3E0700302533D900655E0900602F015
:1049C000E4900696F0900656E09006C41255469084
:1049D00006C5F07CC57D067AC47B061255E69006B6
:1049E000C4E0900603F09006C5E0900604125DF462
:1049F00080AB9005D212542D700302533D9005D127
:104A00007412125519F89005D21254B7D2E5125CFF
:104A10001FD2E5F0E8600302533DE0C2E5023D84A9
:104A20009006C7E06407702F9005CFE064057027FB
:104A3000A3E064C36005E064C4701C900654E064A5
:104A4000107014A3E070109006547405F090067472
:104A5000F0755C01024AE1755C008002055C12544D
:104A6000355065A85C74CC28F582740512541B601F
:104A7000EB900674E064066005E0640770479006FA
:104A800053E0D2E1F0900654E09005CC1255199015
:104A900005CD1254709005CEF0900699E0600C9010
:104AA00005CDE4F0A31254B7C2E1F0900651E0D274
:104AB000E1F09005CDE07010A3E0700C900651E09D
:104AC000C2E1F08003121524900655E06003025302
:104AD0003DA3E0600302533DE4900699023D840546
:104AE0005C125435400302533DA85C74CF28F58214
:104AF000740512541B60E8900674E06405600302BC
:104B00004BD0900655E070259005D0E064C5701D2F
:104B1000900693E0640E700EC3E55794E8E5589450
:104B2000034003740FF09005D0E4023D849005CF5C
:104B300074051255199005D0F07401900697F09005
:104B400006C7E06004640A7076900655E064BF70A2
:104B500011900693740112595D900651E0D2E30260
:104B60003D84E0702B900693E0640370357404126A
:104B700054D1F01254639006C7E07046900655E099
:104B800064B5703E900694E0A2E0B3E433023D8445
:104B900064C570DF900693740BF07557F475580177
:104BA00080B7E0640F6008E0640E70C7740FF09087
:104BB0000651E0C2E2F0900653E0C2E2023D8412E8
:104BC00054639005D0E0600302533D90065180E9A4
:104BD00012152402533D900674E0640670F29005AD
:104BE000D974131255199005DA1254709005DB121E
:104BF00054B7D2E5023D84755100755200900654B9
:104C0000E0146023147003024CC524A27003025305
:104C10003D14700302533D147003024D9D14700344
:104C200002533D140247D5900674E0640760030206
:104C3000533DC217900655E064086005E06480703B
:104C400045900657E06406703DD217900655E0F88F
:104C50009005BCF0A3E41255469005BE125DF4A386
:104C600012534FF54FF55090065112539BC21A1232
:104C70005398E8600302533D900657E060030253E7
:104C80003DD21A02533D900655E0549960159006A6
:104C900057E0642A700D900655E054666003025395
:104CA0003D80A6900655E064016005E06410700642
:104CB000900657E06093900655E0600302533D90E4
:104CC0000657E080D7900674E0640A600302533D03
:104CD0009006A3E060651253C77001E9705D90060D
:104CE000BFE0C394034024750820750900780812BA
:104CF000061812592C12046390060C7401F0A37468
:104D0000201254A87404F0C215803090067774A065
:104D1000F0900690E0900678F090065BE090067EBA
:104D2000F090065CE090067FF090065DE0900680D3
:104D300012559C790A12535F7401F0D218900655EF
:104D4000E0541F900652600474018001E41255196A
:104D5000900602125470900603125546900604F015
:104D6000C214D219900607E06009A3E06005C219D9
:104D700002533D900656E090068C125546F9740F8A
:104D80005990068D1254EBFAC454F0F8E9C4540F4C
:104D90004890068EF0EAC4540FA3023D8490067436
:104DA000E06410600302533D1253F47040E55F600D
:104DB0003C1253A012043AE508F55DF4525E9006E9
:104DC0007774E3F0E9A3F0900661E0900679F09043
:104DD0000662E090067AF0900663E090067B12553A
:104DE0009C79057A777B061213B002533D755F01FB
:104DF00002533DE06403600302533DE4F508F50906
:104E000078081206187508757509067808120618CC
:104E100012538A120463125965400302534B125312
:104E2000C77001E9600B900654E0642860030253E8
:104E30003D9006A4E06414702190067774A5125585
:104E40006990067812552B90067912551F12545A04
:104E50007A777B061213B002534B900654E0642914
:104E60007035750820750900780812061812592C3B
:104E700012046390060C7401F0A3742912553BF5DB
:104E80000878081206187C567D067A0F7B061253A6
:104E90005912046302534B9006A4E06413706490AB
:104EA000067774A9F09006A5E0F508750900780862
:104EB0001206187CA67D067A787B061253591204D6
:104EC000639006A5E0F8747728FA74063400FB12A4
:104ED000556EC0E0EA24FD125587D0E012552BC074
:104EE000E0EA24FE125587D0E012551FC0E0EA2404
:104EF000FF125587D0E012544F9006A5E02404F924
:104F0000024E50900654E024E0700302505F14708B
:104F1000030250B614700302512414700302515658
:104F200014700302528524FE600F147003024FECCC
:104F30001470030252BE02533D9006A4E064016067
:104F40000DE064026008E06403600302533D9006D4
:104F500055E0701F75080875090078081206187C5E
:104F6000567D067A107B06125359120463755F0052
:104F700002533D6401703A750808750900780812FB
:104F800006187C567D067A187B0612535912046364
:104F900090067774A7F0E55FA31255699006791221
:104FA000552B90067A12551F90067B12544F024DD6
:104FB000E1E06402600302533D9006A47402F0E451
:104FC0009006A3F090060C04F0A374281254A8E4F1
:104FD000F075080CF50978081206187C007D007A37
:104FE000207B0612593412046302533D9006A4E05C
:104FF00064036008E06404600302533D9006777424
:10500000A6125519900678F07030750808750900D9
:1050100078081206187CA57D061253551204639079
:105020000656E09006811255469006821254EB9087
:10503000068312544F790D024DE364017011750817
:105040000875090078081206187CAD7D0680CA90A4
:105050000655E0640270C89006A47404023D849072
:1050600006A4E06404600302533D74051254F61272
:10507000061812592C12046390060C7401F0A374E4
:105080002012553BF890060FF074016870199006D5
:10509000BFE004F0C39403500302533D75550075FF
:1050A000560090060F80B3900655E0600302533D12
:1050B0009006BF024B299006A4E064066008E064F5
:1050C00007600302533D900655E064017017900697
:1050D0007874011254821206187CA57D061253556D
:1050E0001204638020E06402701B90067874021240
:1050F00054821206187CAF7D061253551204639039
:1051000006A47407F090067774A112547090068379
:105110001255469006841254EB90068512544F792E
:105120000F024DE39006A4E06407600302533D9034
:105130000655E0600302533D1254F112061812594D
:105140002C12046390060C7401F0A3742112553BD9
:1051500012547602533A9006A4E064096012E064A7
:105160000A600DE0640C6008E0640D600302533DCA
:105170009006A5E004F55E9006A4E0640C6005E0EE
:10518000640D7028900656E0F4702190067774A4A0
:105190001255469006781254EB900679F090065915
:1051A000E012545A12535F740D023D84900656E08B
:1051B000F46006E0600302533D900655E0F8900667
:1051C000A5E068707490067774A3F09006A5E0904F
:1051D0000678125470F8740128900679F074FF680C
:1051E000702475080C75090078081206187CA77DD4
:1051F000067A7A7B0612535912046312554C1253E5
:105200005F740A023D84900656E0600302533D90AD
:1052100006A4E0640A600302533D75080C7509009A
:1052200078081206187CB37D067A7A7B06125359E9
:1052300012046312554C024DE3900656E0F46003ED
:1052400002533D900655E0655E600302533D1254E3
:10525000F112061812592C12046390060C7401F016
:10526000A374231254AD9006A5E090060FF09006AB
:10527000A6E0900610125DEA1214EBC2159006A487
:10528000740B023D849006A4E0640D600302533D5C
:10529000750820750900780812061812592C120496
:1052A0006390060C7401F0A3742412548C125519E7
:1052B000125476F0C2159006A4740E023D8475084F
:1052C00020750900780812061812592C12046390F0
:1052D000060C7401F0A3742612548CF0750806783D
:1052E000081206187C557D067A0F7B061253591258
:1052F0000463900655E07043A3E064066005E06433
:105300000370387A577B06900690E0F9121D5350CF
:10531000061215DF121618900656E0900678125500
:10532000469006791254EB90067AF0900659E09078
:10533000067BF090065AE090067CF0C21590067647
:10534000E004F0C394045003023C30025927E4F017
:10535000A3F0A3F0227A797B06126C717402227A90
:10536000777B061213B09006A4221253723400F514
:105370008322855B0874542508F58274062274BC68
:1053800028F58274053400F583227C747D067A54F6
:105390007B0612130E740422900653E0D2E0F02232
:1053A000755F00900655E0F97508017509007808E9
:1053B0002290067BE0F8900657E0682290067AE09B
:1053C000F8900656E06822900690E0FA9006A2E077
:1053D00024FFF8E434FFF9E86A2290067BE0FA1231
:1053E0005A156A2290067AE0FA745228F5827406F9
:1053F00012541622900656E0FC900655E0F97A57B2
:105400007B06122031A3E0640122900679E0FA12B3
:1054100059F012541622125A206A22125A20FA7493
:105420005428F582740612541622900679E0F890FA
:105430000655E06822855C08900674E024FDF8E4D7
:1054400034FFF9C3E50898E499A2D265D03322125B
:10545000545322F01214EB7C032290067A12545318
:10546000790422900653E0D2E2125C23D2E2F022C9
:10547000F0900656E02290060FF0900656E0900657
:105480001022F075080A750900780822F09006903D
:10549000E00490060E22F0900674740B2290069B96
:1054A0007448F0A37471F0221254ADA322F0900658
:1054B000A2E090060EF0221254BB22F0900653E0B8
:1054C0002290064EF090064DE0F890064EE0C3980C
:1054D000221254DFC2E32274011254DFD2E322F01D
:1054E000755708755800900651E022F0900658E074
:1054F000229006A47408F075082075090078082227
:10550000125C23C2E21254BBD2E222E4F0A3125C8A
:1055100023C2E11254BBD2E122F0900655E022F002
:10552000E824FFF582E912558AE022F01255302274
:10553000E824FEF582E912558AE0221254AD900665
:1055400055E02290064DF0900657E022900657E075
:10555000900686F0900658E0900687F0900659E095
:10556000900688125453791222F012556E2290063A
:1055700074E0F8745428F874063400F9E824FDF552
:1055800082E912558AE022F582EB34FFF58322127C
:10559000559C79057A777B061213B022F01214EB32
:1055A0007C0222C082C083E9F8900650E028F075A2
:1055B000F00F12033CF9E075F00F12033CE5F00226
:1055C0005A64C082C083E9F890064FE028F075F075
:1055D0000F12033CF9E075F00F12033CE5F0F0E91F
:1055E000F404F9025A6574F31204B774EE12044D10
:1055F000ECFEEDFF851082851183AC82AD8375834F
:105600000775822274121204099006C6E0C333F8AB
:10561000E433F9851082851183E58228F8E5833922
:10562000F9125530FCA3E0FD8A828B83E0F470030D
:105630000256C5E0640170030256C5E0F50AA2E710
:105640005003F404F0E0C3943F4003743EF0E0F5EF
:1056500008ECF8EDF9E88508F0A4F885F00B85086A
:10566000F0E9A4250BF99006C0E8F0A3E9F0900654
:10567000C0E0F50CF508A3E0F509740978081204F8
:105680002B8A828B83E508F0E95401F99006CAE57C
:105690000CF0A3E9F0E50AA2E750198A828B83E0B7
:1056A000F404F0C39006CB12576340198A828B83AF
:1056B000E0148010C3E09401C365D03340078A82B0
:1056C0008B83E004F08E828F83E0F47003025759DD
:1056D000E064017003025759E0FAA2E75003F404B2
:1056E000F0E0C3943F4003743EF0E0F508EC850819
:1056F000F0A4FCA8F08508F0EDA428FD9006C2EC0B
:10570000F0A3EDF09006C2E0F508A3E0F5097409F6
:10571000780812042B8E828F83E508F0ECF8ED54A4
:1057200001F99006CCE8F0A3E9F0EAA2E750198E5F
:10573000828F83E0F404F0C39006CD1257634019C2
:105740008E828F83E0148010C3E09401C365D03350
:1057500040078E828F83E004F074121204637F0688
:1057600002051DE09401A2D265D0332274F7120421
:10577000B775080875090078081206187C007D00C6
:105780007AC47B05125934120463900693E01460C6
:105790004A14606524FE70030258251470030258F1
:1057A0008B14700302589E14700302584314700344
:1057B00002586C24FE700302589E1470030258B401
:1057C0001470030258D11470030258F314700302CA
:1057D000590A14700302589E02592712593A50036D
:1057E00002592712594E4003025927755700755820
:1057F00000900693740202592612593A5003025936
:10580000279005C47408F09005C6741312595D12F0
:105810003AB3400302592775570075580090069314
:10582000740402592612593A500302592712594E4C
:10583000400302592775570075580090069374036A
:1058400002592612593A50030259277557087558BC
:10585000009005C47408125949400302592775572E
:1058600000755800900693740802592612593A5050
:10587000030259277557087558009005C47408F03D
:105880009005C612594740AD025927C3E55794F514
:10589000E5589401500302592774060259261259FB
:1058A0003A5003025927755708755800123AB350F9
:1058B00076E48072C3E55794F4E558940140681289
:1058C00059445063755700755800900693740C80C6
:1058D0005512593A40519005C47404F09005C674AD
:1058E0002B12594950417557007558009006937412
:1058F0000D803312593A402F125944502A755700DF
:10590000755800900693740E801CC3E55794E8E523
:1059100058940340129005D0E0700C7557007558EC
:1059200000900693740FF07F0202051D7C007D003D
:105930007A0C7B06126CB7740222C3E5579408E513
:10594000589400229005C47404F0123AB3229005D2
:10595000C47408F0F557755800123AB322F0755721
:10596000087558002274F71204B7755C007A897BB9
:1059700006A95C121BA7125A0CF890068BE06870FF
:1059800062900674E0F8745228F5827406125A0880
:10599000F890068AE068704B1259F0125A08F89095
:1059A0000689E068703D900674E064036035E55C4C
:1059B000900691F07A4C7B06F9121BC490064CE0DD
:1059C0006021A95C121B8FE9F55B900690F07508C9
:1059D00001750900780812043A900692E04508F033
:1059E000D3800A055CE55CC394064081C302592755
:1059F000900674E0F8745128F582740622855C08DC
:105A000074BC2508F5827405125A2022900674E0B1
:105A1000F8125A1522745328F5827406125A20225D
:105A20003400F583E022C082C0839005B9740380FE
:105A300033C082C0831209909005B9E4F0120F4F71
:105A4000120B34121618801DC082C0839005B974E1
:105A500001F0125AAE120F4F9005BA7401F0C2C78E
:105A6000D2AD8001F0D083D08222C082C083900565
:105A7000BAE4F0C2C7C2AD43CB1080E9C082C08394
:105A8000C21CC21BC21DC21EC21FC220C221C22311
:105A9000C224C225C226C22790069EE4F0A3F0903D
:105AA000069B74FFF0A3F0C2F012168180B774F564
:105AB0001204B71236B053CBEF90073478081203B4
:105AC000A1AA08AB09AC0AAD0B122AEAC2C7D2AD33
:105AD0009005BA7401F0755905755A007F040205E6
